:100000000C9465000C948D000C948D000C948D0064
:100010000C948D000C948D000C948D000C948D002C
:100020000C948D000C948D000C948D000C942D1666
:100030000C948D000C9446150C9420150C948D0096
:100040000C948D000C948D000C948D000C948D00FC
:100050000C948D0000003A0037003400310000009D
:100060003B003800350032000202020202020202A6
:100070000404040404040404030303030303030348
:100080000101010101010101010204081020408069
:100090000102040810204080010204081020408062
:1000A000010204081020408000000002000000004F
:1000B0000000000005040007000000000000000030
:1000C0000000000000000000771611241FBECFE5DD
:1000D000D8E0DEBFCDBF25E0A4E4B3E001C01D92AF
:1000E000AD30B207E1F713E0A0E6B0E0ECE2F5E3F3
:1000F00002C005900D92A434B107D9F710E0C5E60F
:10010000D0E004C02197FE010E948E1AC436D107A8
:10011000C9F70E94A2160C94E8170C9400000895E9
:10012000CF92DF92EF92FF920F931F93CF93DF93C3
:100130008C01DC01ED91FC910088F189E02D4DEB03
:1001400050E060E070E00995D82F80EAC82ED12CED
:10015000E12CF12CC0E0D801ED91FC910088F189EF
:10016000E02DB701A601C8010995C81BBFEFCB1A46
:10017000DB0AEB0AFB0A8DEBC816D104E104F1049B
:1001800051F7C95181E0CD1380E0DF91CF911F91EC
:100190000F91FF90EF90DF90CF90089581E0089548
:1001A0000F931F93CF93DF93EC01E881F9810088CF
:1001B000F189E02D4FEF5FEF6FEF70E009950CE4F0
:1001C00013E0F8018083E881F9810088F189E02D4E
:1001D00040E050E0BA01CE010995F8018183E88141
:1001E000F9810088F189E02D4FEF5FE060E070E079
:1001F000CE010995F8018283E881F9810088F189AF
:10020000E02D40E050EF6FEF70E0CE010995F8016E
:100210008383E881F9810088F189E02D40E050E591
:1002200065E570E0CE010995F8018483E881F981E4
:100230000088F189E02D45E555E060E070E0CE01F1
:100240000995F8018583E881F9810088F189E02D1D
:1002500040E050EA6AEA70E0CE010995F801868331
:10026000E881F9810088F189E02D4AEA5AE060E0EE
:1002700070E0CE010995F8018783C801DF91CF9125
:100280001F910F910895DC01ED91FC910088F18997
:10029000E02D4CEB50E060E070E0099483E090E0EA
:1002A0000895CF93DF93CDB7DEB764970FB6F89478
:1002B000DEBF0FBECDBF23E030E03A83298326E0C6
:1002C00030E03C832B8329E030E03E832D832DE01A
:1002D00030E038872F8320E130E03A87298723E117
:1002E00030E03C872B872BE130E03E872D872EE1E5
:1002F00030E0388B2F8722E230E03A8B298B2CEFCD
:1003000030E03C8B2B8BFC0120853185FE01319642
:10031000CE014596419151912417350729F0E817F0
:10032000F907C1F780E001C081E064960FB6F89448
:10033000DEBF0FBECDBFDF91CF910895DC01ED91FF
:10034000FC910088F189E02D4CE451E060E070E020
:100350000994AF92BF92CF92DF92EF92FF920F93E8
:100360001F93CF935C0102E810E084E0C82EDD24E7
:10037000D394E12CF12CC1E0D501ED91FC910088E2
:10038000F189E02DB701A601C5010995F801919108
:100390008F018913C0E0FFEFCF1ADF0AEF0AFF0ACF
:1003A00084E3C81681E0D806E104F10429F78C2F14
:1003B000CF911F910F91FF90EF90DF90CF90BF9062
:1003C000AF900895CF92DF92EF92FF920F931F9319
:1003D000CF93DF93EC01E881F9810088F189E02D6A
:1003E0004DE451E060E070E00995082F84E3C82EE9
:1003F000DD24D394E12CF12C10E0E881F981008810
:10040000F189E02DB701A601CE0109958095180F5D
:100410008FEFC81AD80AE80AF80A8DE4C81681E0F6
:10042000D806E104F10449F781E0011380E0DF918F
:10043000CF911F910F91FF90EF90DF90CF90089593
:100440000F931F93CF93DF93EC01E881F98100882C
:10045000F189E02D40E050E0BA01099504E413E091
:10046000F8018083E881F9810088F189E02D47E374
:1004700053E160E070E0CE010995F8018183E881E5
:10048000F9810088F189E02D40E055E560E070E0F9
:10049000CE010995F8018283E881F9810088F1890C
:1004A000E02D48E858E060E070E0CE010995F801E1
:1004B0008383E881F9810088F189E02D4AEA50E0E0
:1004C00060E070E0CE010995F8018483E881F9814C
:1004D0000088F189E02D45E550E060E070E0CE0154
:1004E0000995F8018583E881F9810088F189E02D7B
:1004F00045E555E560E070E0CE010995F801868399
:10050000E881F9810088F189E02D4DE05DE060E04F
:1005100070E0CE010995F8018783C801DF91CF9182
:100520001F910F910895FC012481A281B381AF5FD7
:10053000BF4930E00E946B180895FC016581768107
:10054000CB01A0E0B0E0BC01CD012EE0660F771F2B
:10055000881F991F2A95D1F70895DC01ED91FC9130
:100560000088F189E02D43E451E060E070E00995F6
:10057000803C19F081E090E0089582E090E00895D9
:10058000CF92DF92EF92FF92CF936A017B018FEFC0
:1005900084BB87BB8ABBDB01CA01B695A79597953B
:1005A0008795AD01662777274BBB492F5A2F6B2FB5
:1005B000772748BB85BB60E08CE00E94781515BAB0
:1005C00018BA14BA17BA60E08BE00E9478150000E0
:1005D0000000C0FC02C0C3B301C0C6B361E08BE041
:1005E0000E94781561E08CE00E9478158C2FCF91E5
:1005F000FF90EF90DF90CF900895CF93DF938FEF30
:1006000084BB87BB8ABB7695679557954795CB0189
:10061000AA27BB278BBBBB27A72F962F852F88BB6D
:1006200045BB60E08CE00E94781515BA18BA14BA80
:1006300017BA60E08BE00E94781500000000D3B389
:10064000C6B361E08BE00E94781561E08CE00E9407
:1006500078158C2F90E09D2BDF91CF910895AF926C
:10066000BF92CF92DF92EF92FF920F931F93CF939F
:100670005C0102EB10E084E0C82ED12CE12CF12CBF
:10068000C1E0B701A601C5010E94FD02F801219158
:1006900031918F018217930709F0C0E0F2E0CF0E8D
:1006A000D11CE11CF11C80EAC816D104E104F1045C
:1006B00041F78C2FCF911F910F91FF90EF90DF901A
:1006C000CF90BF90AF900895CF93DF93D22F8FEF4D
:1006D0008ABB000000000000000045BB452F5527E5
:1006E00048BB00000000000000002BBB0000000021
:1006F00000000000C0914E0160E08C2F0E94781530
:10070000000000000000000061E08C2F0E947815BE
:100710008D2FDF91CF91089520E040E050E0BA01A5
:100720000C9464032AE040E050E0BA010C946403A6
:10073000CF931ABA000000000000000045BB452F0F
:10074000552748BB000000000000000060E08CE07E
:100750000E94781560E08BE00E9478150000000090
:1007600000000000C9B361E08CE00E94781561E0F0
:100770008BE00E94781500000000000000008C2F24
:10078000CF9108951F93CF93DF93EC01162F2AEAA0
:1007900045E555E560E070E00E94D50925E54AEAA7
:1007A0005AE260E070E0CE010E94D50920EB45E5F9
:1007B00055E560E070E0CE010E94D509212F40E0B0
:1007C00050E0BA01CE010E94D509000000000000EF
:1007D0000000DF91CF911F910895E1E6F3E01192BF
:1007E00084E0E136F807D9F708955F926F927F921F
:1007F0008F929F92AF92BF92CF92DF92EF92FF9231
:100800000F931F93CF93DF93682E742E852E962E11
:10081000D72E5901E7010E94ED03E881F981028496
:10082000F385E02DC70109957C01E881F9810484F5
:10083000F585E02DCE010995582EE881F9810684D1
:10084000F785E02DCE01099593E0E916F10419F042
:1008500020E630E002C02EE630E09AEC909361038F
:100860009EEF90936203609263039091570190937F
:100870006403E0926503509266038093670381E00E
:10088000809368037092690380926A0390926B036D
:10089000D0926C0300936D0310936E03A0926F03CC
:1008A000B0927003890181E7E82E83E0F82E5901A8
:1008B000EEE0AE0EB11CF801419151918F0160E064
:1008C00070E0E881F9810088F189E02DCE01099579
:1008D000F70181937F010A151B0569F7C092780320
:1008E000E0916104F09162040280F381E02D40E028
:1008F00051E061E673E081E694E0DF91CF911F91D2
:100900000F91FF90EF90DF90CF90BF90AF909F90AE
:100910008F907F906F905F9009942F923F924F92AB
:100920005F926F927F928F929F92AF92BF92CF927F
:10093000DF92EF92FF920F931F93CF93DF93CDB788
:10094000DEB7CA54D1090FB6F894DEBF0FBECDBFD3
:100950004C015B0129013A0167ED71E0C5010E947C
:100960006F1A892B59F163EE71E0C5010E946F1A6D
:10097000892B21F16FEE71E0C5010E946F1A892B5E
:10098000E9F06BEF71E0C5010E946F1A892BB1F09D
:1009900067E072E0C5010E946F1A892B79F063E16C
:1009A00072E0C5010E946F1A892B41F06FE172E07D
:1009B000C5010E946F1A892B09F01DC1D401ED9168
:1009C000FC910288F389E02DC4010995AB01BC01BB
:1009D00083E0C82ED12C74019301820180915901CA
:1009E0000E94F503D301C20123E0B695A795979520
:1009F00087952A95D1F7C12CD12C760122961FAE6E
:100A00002297AC01BD016627772729964CAF5DAFD1
:100A10006EAF7FAF299750914E0125965FAF259716
:100A2000BC01605471092B967FAF6EAF2B971E01EE
:100A300071E4270E311C29968CAD9DADAEADBFADD6
:100A40002997C816D906EA06FB0608F0D4C060E06C
:100A50008CE00E94781561E080E10E94781525966F
:100A60006FAD2597C4010E94AA0A25966FAD259700
:100A7000C4010E94AA0A2B96AEADBFAD2B9750972A
:100A800028F406E010E020E030E004C00EE010E0C2
:100A900020E030E0B701A601C4010E94B50A60E081
:100AA00080E10E94781525966FAD2597C4010E94BC
:100AB000AA0A61E08CE00E94781560E080E10E9463
:100AC000B71560E08CE00E94781514E06BE0C4017B
:100AD0000E94AA0A1150D1F78E010F5F1F4F249672
:100AE0001FAF0EAF24976BE0C4010E94AA0A83B324
:100AF00081702496EEADFFAD249781932496FFAFCD
:100B0000EEAF24970000000000000000E215F3059E
:100B100051F722962FAD2297E22FF0E0EF59FC4FCC
:100B2000D8018C91B0E88B9F90011124D8011196C7
:100B30009C91B0E49B9FC0011124822BD801179691
:100B40002C911797822B12969C91B0E29B9FB0013B
:100B50001124282F262BD80113969C91B0E19B9F3E
:100B6000A0011124822F842BD80114969C91B8E007
:100B70009B9F90011124282BD80115969C91B4E0DD
:100B80009B9FC0011124822BD80116969C91990F2E
:100B9000892B80832296BFAD2297BF3F91F4E091CD
:100BA0006104F09162040280F381E02D40E051E0A5
:100BB00061E673E081E694E0099522961FAE2297E4
:100BC00007C02296EFAD2297EF5F2296EFAF2297F4
:100BD000085F1F4F2016310609F09BCF61E08CE0C3
:100BE0000E947815C4010E940B0BFFEFCF1ADF0A99
:100BF000EF0AFF0A20CF6BE272E0C5010E946F1A74
:100C0000892B89F165E372E0C5010E946F1A892B77
:100C100051F16FE372E0C5010E946F1A892B19F13F
:100C200069E472E0C5010E946F1A892BE1F063E567
:100C300072E0C5010E946F1A892BA9F06FE572E07E
:100C4000C5010E946F1A892B71F06BE672E0C50135
:100C50000E946F1A892B39F067E772E0C5010E9484
:100C60006F1A892B31F4A3019201B501C4010E94CE
:100C7000050A63E872E0C5010E946F1A892B09F426
:100C800047C061E972E0C5010E946F1A892B09F41F
:100C90003FC06FE972E0C5010E946F1A892BC1F154
:100CA0006AEA72E0C5010E946F1A892B89F165EB2F
:100CB00072E0C5010E946F1A892B51F160EC72E05D
:100CC000C5010E946F1A892B19F16DEC72E0C50104
:100CD0000E946F1A892BE1F068ED72E0C5010E9455
:100CE0006F1A892BA9F065EE72E0C5010E946F1A98
:100CF000892B71F063EF72E0C5010E946F1A892B96
:100D000039F06EEF72E0C5010E946F1A892BF9F479
:100D1000A3019201B501C401C65BDF4F0FB6F89481
:100D2000DEBF0FBECDBFDF91CF911F910F91FF901E
:100D3000EF90DF90CF90BF90AF909F908F907F907B
:100D40006F905F904F903F902F900C94050AC65B78
:100D5000DF4F0FB6F894DEBF0FBECDBFDF91CF914E
:100D60001F910F91FF90EF90DF90CF90BF90AF90C9
:100D70009F908F907F906F905F904F903F902F90BB
:100D800008952F923F924F925F926F927F928F922F
:100D90009F92AF92BF92CF92DF92EF92FF920F930A
:100DA0001F93CF93DF931C0149015A01DC01ED91A0
:100DB000FC910488F589E02D09958B019C0183E065
:100DC000C82ED12C7101B501A401809159010E9456
:100DD000F503C12CD12C760101E614E0C814D90426
:100DE000EA04FB0438F5C1E6D3E026013701B3017C
:100DF000A201C1010E94FD0298838983B2E04B0EDB
:100E0000511C611C711C22960C171D0781F78FEF76
:100E1000D81AE80AF80AE0916104F09162040280AD
:100E2000F381E02D40E051E061E673E081E694E07B
:100E30000995D4CFDF91CF911F910F91FF90EF9043
:100E4000DF90CF90BF90AF909F908F907F906F90EA
:100E50005F904F903F902F9008958F929F92AF9206
:100E6000BF92CF92DF92EF92FF920F931F93CF9397
:100E7000DF93EC018C85E881F981811123C080909A
:100E80005B01912CA12CB12C0288F389E02DCE01BD
:100E90000995AB01BC0132E0C32ED12C7E01950136
:100EA000840180915B010E94F503DF91CF911F9136
:100EB0000F91FF90EF90DF90CF90BF90AF909F90F9
:100EC0008F9008950488F589E02DCE0109954B0196
:100ED0005C01E881F9810288F389E02DCE01099552
:100EE000AB01BC0122E0C22ED12C7E019501840110
:100EF000809159010E94F50388859985059744F4EE
:100F000021E040E050E660E070E0CE010E94640322
:100F1000E881F9810088F189E02D44E351E060E047
:100F200070E0CE010995CE010E94920300E010E02E
:100F30008C8190E0081719070CF041C0202F40E089
:100F400050E460E070E0CE010E9464030E94ED0373
:100F5000E12C90EAF92E8A819B818E159F0560F124
:100F600081E6C82E83E0D82EC701815693405C01EC
:100F7000A5014C0D5D1D60E070E0E881F9810088FD
:100F8000F189E02DCE010995F60181936F01F1E61B
:100F9000CF16F4E0DF0661F7F394E0916104F0917D
:100FA00062040280F381E02D40E051E061E673E0ED
:100FB00081E694E00995CFCF0F5F1F4FB9CFCE01E7
:100FC000DF91CF911F910F91FF90EF90DF90CF9025
:100FD000BF90AF909F908F900C948C032F923F9274
:100FE0004F925F926F927F928F929F92AF92BF9239
:100FF000CF92DF92EF92FF920F931F93CF93DF93E5
:1010000000D000D01F92CDB7DEB79D838C834901FD
:101010005A01DC011C968C911C97ED91FC91119763
:1010200081112FC080905B01912CA12CB12C0288E2
:10103000F389E02DCD010995AB01BC0122E0C22E60
:10104000D12CEC80FD809501840180915B010E9490
:10105000F5030F900F900F900F900F90DF91CF91AD
:101060001F910F91FF90EF90DF90CF90BF90AF90C6
:101070009F908F907F906F905F904F903F902F90B8
:1010800008950488F589E02D8C819D8109952B01B7
:101090003C01AC81BD81ED91FC9111970288F389EF
:1010A000E02DCD010995AB01BC0192E0C92ED12CF8
:1010B000EC80FD8093018201809159010E94F5032B
:1010C0008C819D810E949203212C312C00E010E044
:1010D000EC81FD81848190E028163906DCF08C815A
:1010E0009D810F900F900F900F900F90DF91CF91F7
:1010F0001F910F91FF90EF90DF90CF90BF90AF9036
:101100009F908F907F906F905F904F903F902F9027
:101110000C948C03AC81BD8118968D919C9119978C
:10112000049741F421E040E050E660E070E0CD013A
:101130000E946403222D40E050E460E070E08C8166
:101140009D810E9464030E94ED03412C80EA582E89
:10115000612C712CEC81FD8182819381A0E0B0E053
:1011600084159505A605B70508F44DC00E94DF1447
:1011700081E693E09A83898373016201A981BA8130
:10118000ED91BA83A983EB8360E08CE00E9478152F
:101190002B81B701A6018C819D810E946403000010
:1011A00000000000000061E08CE00E947815FFEF75
:1011B000CF1ADF0AEF0AFF0A89819A81815694408B
:1011C000E9F6BFEF5B1A6B0A7B0A13950E94ED03E9
:1011D000E8E8E0936103E0916104F0916204028029
:1011E000F381E02D40E051E061E673E081E694E0B8
:1011F0000995C801A0E0B0E088159905AA05BB05CE
:1012000008F4A8CF6CCFFFEF2F1A3F0A61CF8F925F
:101210009F92AF92BF92CF92DF92EF92FF920F9385
:101220001F93CF93DF93EC01E881F9810488F5895E
:10123000E02D09954B015C01E881F9810288F38971
:10124000E02DCE010995AB01BC0122E0C22ED12CCC
:101250007E0195018401809159010E94F50320E0EF
:1012600040E051E260E070E0CE010E94640300E0E3
:1012700010E08D819E810817190708F048C01016EC
:10128000110664F4202F40E051E260E070E0CE01EE
:101290000E946403812C90E4992E02C0812C912C31
:1012A000E12CF12C81E6C82E83E0D82EC4018E0DEE
:1012B0009F1D9C01215633405901A5014C0D5D1D18
:1012C00060E070E0E881F9810088F189E02DCE01CD
:1012D0000995F60181936F01F1E6CF16F4E0DF0680
:1012E00061F7F394E0916104F09162040280F3816C
:1012F000E02D40E051E061E673E081E694E009957D
:10130000E11430E4F30671F60F5F1F4FB2CFDF91A7
:10131000CF911F910F91FF90EF90DF90CF90BF90F2
:10132000AF909F908F90089580E090E0089580E0C6
:10133000089580E00895CF93DF93CDB7DEB7DA95B7
:101340000FB6F894DEBF0FBECDBF80915B01BE012A
:101350006F5F7F4F20E031E0FB01A9011192415006
:101360005040E1F78983809157018A83E0916104BD
:10137000F09162040280F381E02D40E051E081E6CB
:1013800094E00995D3950FB6F894DEBF0FBECDBF9C
:10139000DF91CF91089560E070E0CB01089580E087
:1013A000089584E593E008950895CF938FEF8ABB65
:1013B00087BB84BB0000000000000000BB27A72FF4
:1013C000962F852F88BB45BB2BBB0000000000007B
:1013D0000000C0914E0160E08C2F0E94781560E003
:1013E0008DE00E947815000000000000000061E020
:1013F0008C2F0E94781561E08DE00E947815000026
:10140000000000000000CF9108954F925F926F920C
:101410007F92AF92BF92CF92DF92EF92FF920F93A3
:101420001F93CF93DF935C0129013A01DC01ED9119
:10143000FC910288F389E02D0995AB01BC0133E0F2
:10144000C32ED12C750193018201809159010E9414
:10145000F503B1E04B1651046B06710420F060E017
:10146000C5010E94C203C12CD12C7601C0E0D0E09E
:101470001FEFC414D504E604F70409F45CC08FEF31
:10148000C816D806E104F10449F461E0C5010E94E0
:10149000C2038FEF9FEFA0E0B0E00CC0C114D104F5
:1014A000A1E0EA06F10420F0D701C601119702C0BD
:1014B000D701C60117BB14BB1ABA492F5A2F6B2F7D
:1014C000772748BB85BB60E08BE00E94781560E021
:1014D0008DE00E947815000000000000000009B3B4
:1014E00061E08BE00E94781561E08DE00E94781544
:1014F0000000000000000000FE01EF59FC4F0083D7
:10150000CF3FD10589F4E0916104F091620402803B
:10151000F381E02D40E051E061E673E081E694E084
:101520000995C0E0D0E001C02196BFEFCB1ADB0ADD
:10153000EB0AFB0A9ECFDF91CF911F910F91FF9095
:10154000EF90DF90CF90BF90AF907F906F905F90C3
:101550004F900895CF93C62F60E08C2F0E9478158E
:1015600061E08C2FCF910C9478157F928F929F928F
:10157000AF92BF92CF92DF92EF92FF920F931F93A1
:10158000CF93DF93EC014A015B016801790101E02F
:1015900010E070904E01C114D104E104F10469F12E
:1015A000960121503109C801022E02C0880F991FEF
:1015B0000A94E2F7092E000CAA0BBB0B8821992193
:1015C000AA21BB2104C0B695A795979587952A9522
:1015D000D2F7892B8A2B8B2B11F061E001C060E0E0
:1015E00080E10E947815672DCE010E94AA0A81E051
:1015F000C81AD108E108F108CECFDF91CF911F9131
:101600000F91FF90EF90DF90CF90BF90AF909F90A1
:101610008F907F90089561E080E10E94B71561E0AE
:101620008FE10E94B71561E080E10E94781561E0CA
:101630008FE10E947815000000000000000008956E
:101640002F923F924F925F926F927F928F929F92D2
:10165000AF92BF92CF92DF92EF92FF920F931F93C0
:10166000CF93DF93CDB7DEB72C970FB6F894DEBFDC
:101670000FBECDBF1C017C876B8729013A0167ED46
:1016800071E08B859C850E946F1A892B89F163EE2E
:1016900071E08B859C850E946F1A892B49F16FEE52
:1016A00071E08B859C850E946F1A892B09F16BEF85
:1016B00071E08B859C850E946F1A892BC9F067E0C9
:1016C00072E08B859C850E946F1A892B89F063E1FB
:1016D00072E08B859C850E946F1A892B49F06FE11F
:1016E00072E08B859C850E946F1A892B09F0EEC0F1
:1016F000D101ED91FC910288F389E02DC10109959A
:10170000AB01BC01E3E0CE2ED12C7101930182012B
:10171000809159010E94F503D301C201F7E0B6950B
:10172000A79597958795FA95D1F78B839C83AD8381
:10173000BE83C1010E940B0B0000000000000000EE
:101740008B819C81AD81BE8114E0880F991FAA1FF7
:10175000BB1F1A95D1F78F839887A987BA87812CE9
:10176000912C5401E12CF12CD0904E018F81988561
:10177000A985BA8588159905AA05BB0509F4A6C0EF
:1017800060E08CE00E94781561E080E10E947815AD
:101790006D2DC1010E94AA0A60E080E10E947815C7
:1017A0006D2DC1010E94AA0A8B819C81AD81BE81F1
:1017B0000497A105B10529F406E010E020E030E02F
:1017C00004C00EE010E020E030E0B501A401C1014A
:1017D0000E94B50A0000000000000000E114F104BE
:1017E00011F40E94DF14D701AF59BC4FBA83A9830B
:1017F00058E0C52EE981FA814191FA83E98350E0EE
:1018000060E070E008E010E020E030E0C1010E94FC
:10181000B50ACA94C110EECFF8E0EF0EF11C8FEFBD
:10182000E816F104B1F0A8F00E94ED0398E8909357
:101830006103E0916104F09162040280F381E02D84
:1018400040E051E061E673E081E694E00995E12C27
:10185000F12C60E080E10E9478156D2DC1010E949D
:10186000AA0A61E08CE00E94781560E080E10E94A5
:10187000B71560E08CE00E94781560E08BE00E9474
:101880007815000000000000000061E08CE00E947C
:10189000781561E08BE00E947815000000000000E0
:1018A000000083B3000000000000000080FFE1CFD3
:1018B00061E080E10E94B71561E080E10E94781547
:1018C000AFEF8A1A9A0AAA0ABA0A50CF6BE272E0FC
:1018D0008B859C850E946F1A892BC9F165E372E0A4
:1018E0008B859C850E946F1A892B89F16FE372E0CA
:1018F0008B859C850E946F1A892B49F169E472E0FF
:101900008B859C850E946F1A892B09F163E572E033
:101910008B859C850E946F1A892BC9F06FE572E058
:101920008B859C850E946F1A892B89F06BE672E08B
:101930008B859C850E946F1A892B49F067E772E0BE
:101940008B859C850E946F1A892B09F06FC0D1018D
:10195000ED91FC910288F389E02DC1010995AB015D
:10196000BC0133E0C32ED12C71019301820180911F
:1019700059010E94F5038FEF8ABB87BB84BBC12C42
:10198000D12C760100E010E0B0904E0148E8A42E82
:101990004C145D046E047F0409F448C00115110560
:1019A00011F40E94DF14BB27AF2D9E2D8D2D88BB17
:1019B000C5BAF801EF59FC4F80818BBB0F5F1F4FF9
:1019C00060E08B2D0E94781560E08DE00E94781514
:1019D000000000000000000061E08DE00E9478152A
:1019E00061E08B2D0E9478150000000000000000CF
:1019F0000F3F1105A9F0A0F00E94ED03A092610332
:101A0000E0916104F09162040280F381E02D40E0F6
:101A100051E061E673E081E694E0099500E010E0B2
:101A2000BFEFCB1ADB0AEB0AFB0AB2CF63E872E026
:101A30008B859C850E946F1A892B09F453C061E93C
:101A400072E08B859C850E946F1A892B09F44AC02D
:101A50006FE972E08B859C850E946F1A892B09F4CF
:101A600041C06AEA72E08B859C850E946F1A892BBF
:101A7000C9F165EB72E08B859C850E946F1A892BFA
:101A800089F160EC72E08B859C850E946F1A892B2E
:101A900049F16DEC72E08B859C850E946F1A892B51
:101AA00009F168ED72E08B859C850E946F1A892B85
:101AB000C9F065EE72E08B859C850E946F1A892BB8
:101AC00089F063EF72E08B859C850E946F1A892BE9
:101AD00049F06EEF72E08B859C850E946F1A892B0E
:101AE00009F074C1D101ED91FC910288F389E02DD8
:101AF000C1010995AB01BC0193E0C92ED12C710144
:101B000093018201809159010E94F50361E08CE00C
:101B10000E947815B0914E01B98361E08B2F0E942D
:101B2000781561E08BE00E9478152AEA45E555E5D5
:101B300060E070E0C1010E94D50925E54AEA5AE259
:101B400060E070E0C1010E94D50920EF45E555E550
:101B500060E070E0C1010E94D50920EF45E555E540
:101B600060E070E0C1010E94D50968EE73E080E09A
:101B700090E00E94F31561E08CE00E94781561E02E
:101B800089810E94781561E08BE00E9478152AEA2D
:101B900045E555E560E070E0C1010E94D50925E505
:101BA0004AEA5AE260E070E0C1010E94D50920E8EB
:101BB00045E555E560E070E0C1010E94D5092AEADB
:101BC00045E555E560E070E0C1010E94D50925E5D5
:101BD0004AEA5AE260E070E0C1010E94D50920E1C2
:101BE00045E555E560E070E0C1010E94D50964EF6C
:101BF00071E080E090E00E94F3150000000000001A
:101C00000000E1E04E1651046E06710420F060E021
:101C1000C1010E94C203C12CD12C760118861F82FB
:101C20004C145D046E047F0409F4D0C08F81988544
:101C3000892BB9F481E694E00E94731318161906F3
:101C40003CF061E070E080E090E00E94F315F2CF9C
:101C500081E694E00E9473131816190614F40E948A
:101C6000DF149FEFC916D906E104F10451F461E0D5
:101C7000C1010E94C20388248A94982CA12CB12C03
:101C80000BC046015701C114D104A1E0EA06F104DA
:101C900018F0B1E0AB1AB1082AEA45E555E560E075
:101CA00070E0C1010E94D50925E54AEA5AE260E0E8
:101CB00070E0C1010E94D50920EA45E555E560E0E4
:101CC00070E0C1010E94D509000000000000000082
:101CD0000F8118850F591C4FF8012081B501A4010F
:101CE000C1010E94D50900000000000000001ABADE
:101CF00060E08BE00E94781500000000000000000A
:101D0000D8018C9199B39813FDCF61E08BE00E94CC
:101D1000781599821ABABFEFB7BBB4BB60E08DE00B
:101D20000E94781560E08BE00E94781500000000AA
:101D300000000000E981E8BB85BA00000000000057
:101D40000000F9B3FB83000000000000000061E028
:101D50008DE00E94781561E08BE00E94781500000C
:101D6000000000000000D8018C91BB818B13D2CF02
:101D70000000000000000000EFEFEABB00000000E0
:101D8000000000008F819885019698878F838F3F90
:101D90009105B1F0A8F00E94ED0398E890936103DB
:101DA000E0916104F09162040280F381E02D40E053
:101DB00051E061E673E081E694E0099518861F82A0
:101DC000AFEFCA1ADA0AEA0AFA0A2ACF2C960FB635
:101DD000F894DEBF0FBECDBFDF91CF911F910F9161
:101DE000FF90EF90DF90CF90BF90AF909F908F903B
:101DF0007F906F905F904F903F902F9008954F92FB
:101E00005F926F927F928F929F92AF92BF92CF928A
:101E1000DF92EF92FF920F931F93CF93DF93CDB793
:101E2000DEB7C05DD1400FB6F894DEBF0FBECDBFA8
:101E30009E012F5F3F4F690180E091E0D901FC01D5
:101E40001D923197E9F78E010F5F1E4FD801119651
:101E50001C921E9213961C921E92129715961C921B
:101E60001E92149760E070E0C8010E94F914F80116
:101E700020813181811113C02115310519F0C9016B
:101E80000E941219D80111961C921E9215961C924E
:101E90001E92149713961C921E92129708C0F80176
:101EA000158214826EE572E0C9010E94781A0E94C0
:101EB000A5149E012B593E4F590197FD23C0D50112
:101EC0008C9311961C92F801E480F580FFEFEF1AD5
:101ED000FF0AB701C8010E94F914882381F0D801D4
:101EE0002D913C91119714968D919C911597B50168
:101EF000820F931F0E94781AF801F582E4820E94F3
:101F0000A514DBCFD8011496ED90FC901597E11441
:101F1000F10411F4198212C0BFEFEB16F10418F0AE
:101F2000EE24EA94F12CF80160817181A701C601C9
:101F30000E947F1AF601EE0DFF1D1082D8018D91CF
:101F40009C910E94121984E6F50111928A95E9F795
:101F500080E2D8011D928A95E9F77E01B7E3EB1A7A
:101F6000BEEFFB0AF701B182A082C5018096938380
:101F700082834E01FBE58F1AFEEF9F0AD70115966B
:101F80009C928E92149717961C930E93169740E08E
:101F900050E0BA0180E090E0DC01F60121916F0190
:101FA000203291F4FC01EE0FFF1FEE0DFF1D20818A
:101FB0003181F901E40FF51F10820196A11DB11DB9
:101FC00040E050E0BA01E9CF21110CC0880F991F01
:101FD000F701E80FF91F80819181FC01E40FF51FE3
:101FE000108215C084309105A105B10580F4FC0173
:101FF000EE0FFF1FEE0DFF1D0190F081E02DE40FAD
:10200000F51F20834F5F5F4F6F4F7F4FC6CFD801C3
:102010008C91882379F040E050E060E070E0C801E6
:102020000E94F316CB53DE4F688379838A839B83A8
:10203000C55CD14069E073E0C5010E946F1A892B2D
:1020400009F0B2C26501B0E2CB0ED11C6EE073E0C4
:10205000C6010E946F1A892B99F480915F039091B9
:102060006003CB53DE4F288139814A815B81C55C97
:10207000D140DC01ED91FC910280F381E02D19C08B
:1020800063E173E0C6010E946F1A892BA9F4809165
:102090005F0390916003CB53DE4F288139814A81E1
:1020A0005B81C55CD140DC01ED91FC910480F58140
:1020B000E02DB401099578C268E173E0C6010E9481
:1020C0006F1A892B09F051C284E6F501D8010190FD
:1020D0000D928A95E1F762E273E0CE018F5B9E4F2D
:1020E0000E946F1A00915D0310915E03892B51F4D9
:1020F0000130110539F081E090E090935E03809308
:102100005D0324C066E273E0CE018F5B9E4F0E94A8
:102110006F1A892B31F40230110519F082E090E03A
:102120000EC06AE273E0CE018F5B9E4F0E946F1A71
:10213000892B59F40330110541F083E090E090932E
:102140005E0380935D0381E001C080E090915C03B9
:10215000992319F0882309F4E3C180915D039091DC
:102160005E039C01215031092230310508F053C132
:102170008DE090E00E947A188C0181E691E0F801F0
:102180009183808361E08FE00E94B71561E08FE06A
:102190000E94781569E170E080E090E00E94F315FC
:1021A00061E08BE00E94B71561E08AE00E94B715FC
:1021B00061E08CE00E94B71561E08DE00E94B715E8
:1021C0008FEF84BB87BB000000000000000061E0CF
:1021D0008BE00E94781561E08AE00E94781561E04A
:1021E0008CE00E94781561E08DE00E947815D8019E
:1021F000ED91FC910088F189E02D47E451E060E029
:1022000070E0C8010995282F30E0F8013187208758
:102210002115310521F098EF980F923030F4D80154
:102220001B961C921E921A974DC09FEF980F9330E9
:1022300018F481E090E043C09BEF980F923018F4BF
:1022400082E090E031C095EF980F933018F48CE065
:1022500090E035C091EF980F953018F483E090E04E
:1022600023C08951863018F485E090E028C02032E0
:10227000310519F486E090E017C02232310519F4D7
:1022800087E090E01CC02C3F310519F488E090E015
:102290000BC02D3F310519F489E090E010C02E3FAE
:1022A000310541F48AE090E0D8011B969C938E930F
:1022B0001A9708C02F3F310529F48BE090E0F80110
:1022C00093878287C8010E945101D8011C968C9384
:1022D0001C97ED91FC910088F189E02D48E451E0D4
:1022E00060E070E0C80109958823E1F1813019F4BC
:1022F00084E090E031C0823019F488E090E034C08E
:10230000833019F480E190E027C0843019F480E232
:1023100090E02AC0853019F480E490E01DC086303A
:1023200019F480E890E020C0873019F480E091E053
:1023300013C0883019F480E092E016C0823519F499
:1023400088E490E009C0833519F480E590E00CC082
:10235000843541F480E690E0D80116969C938E93E4
:10236000159705C082E090E0F80196838583D80137
:10237000ED91FC910088F189E02D49E451E060E0A5
:1023800070E0C8010995811103C0F801148216C0DC
:10239000813089F0823011F481E007C0833011F47C
:1023A00084E009C0843021F480E1F801848306C010
:1023B000853059F788E0D80114968C93F801808510
:1023C0009185069711F481E08483D801ED91FC9109
:1023D0000088F189E02D49E451E060E070E0C80137
:1023E0000995813041F0F80182859385029731F09B
:1023F0008FEF9FEB05C08FEF97EA02C08FEF91EA56
:10240000D80113969C938E931297C8010E949E0147
:10241000F801878354C0039709F073C084E090E00B
:102420000E947A188C0187E891E0F80191838083FB
:1024300061E08FE00E94B71560E08FE00E947815A0
:1024400069E170E080E090E00E94F31561E08BE0CC
:102450000E94B71561E08AE00E94B71561E08CE048
:102460000E94B71561E08DE00E94B71561E08EE033
:102470000E94B71561E08BE00E94781561E08AE068
:102480000E94781561E08CE00E94781561E08DE093
:102490000E94781561E08EE00E9478158FEF84BB72
:1024A00087BB8ABB1BBA18BA15BAC8010E94430180
:1024B000D80112968C93129781E013968C9364E660
:1024C00070E080E090E00E94F315109360030093A9
:1024D0005F03D801ED91FC91008CF18DE02DC801D6
:1024E00009958823E9F080915F0390916003DC01F6
:1024F000ED91FC91028CF38DE02D09958111A6C020
:102500000FC087EA91E0F701918380836AE070E071
:1025100080E090E00E94F315F0926003E0925F0388
:10252000C0905D03D0905E0380915F039091600343
:10253000DC01ED91FC910488F589E02D09952B01D2
:102540003C01E0905F03F0906003D701ED91FC91B6
:102550000288F389E02DC7010995AB01BC01930105
:10256000820181E00E94F5031FC06EE273E0C601A4
:102570000E946F1A892BC1F4E0916104F09162040A
:102580000281138180915F0390916003DC01ED91E2
:10259000FC910688F789E02D099548E050E0BC01E0
:1025A00081E694E0F801099567E373E0C5010E94B4
:1025B0006F1A892BC1F58501005E1F4F63E173E03F
:1025C000C8010E946F1A892B99F480915F03909142
:1025D0006003CB53DE4F288139814A815B81C55C22
:1025E000D140DC01ED91FC910084F185E02D19C012
:1025F0006EE073E0C8010E946F1A892BA1F48091EC
:102600005F0390916003CB53DE4F288139814A816B
:102610005B81C55CD140DC01ED91FC910680F781C6
:10262000E02DB40109956DE373E0C5010E946F1AB6
:10263000892B81F480915F0390916003DC01ED911F
:10264000FC910190F081E02D099504C081E0809318
:102650005C0366CFC053DE4F0FB6F894DEBF0FBEEB
:10266000CDBFDF91CF911F910F91FF90EF90DF9041
:10267000CF90BF90AF909F908F907F906F905F9022
:102680004F900895FC01538D448D252F30E0842F09
:1026900090E0821B930B541710F0CF96089501978A
:1026A0000895FC01918D828D981761F0828DDF0174
:1026B000A80FB11D5D968C91928D9F5F9F73928F35
:1026C00090E008958FEF9FEF0895FC01918D828D2A
:1026D000981731F0828DE80FF11D858D90E00895F7
:1026E0008FEF9FEF0895FC01918D228D892F90E04F
:1026F000805C9F4F821B91098F7399270895FC017D
:10270000848DDF01A80FB11DA35ABF4F2C91848D7A
:1027100090E001968F739927848FA689B7892C93AF
:10272000A089B1898C9180648C93938D848D98134A
:1027300006C00288F389E02D80818F7D8083089513
:10274000EF92FF920F931F93CF93DF93EC0181E001
:10275000888F9B8D8C8D981305C0E889F9898081BD
:1027600085FD24C0F62E0B8D10E00F5F1F4F0F73F9
:102770001127E02E8C8DE8120CC00FB607FCFACFA3
:10278000E889F989808185FFF5CFCE010E947F130A
:10279000F1CF8B8DFE01E80FF11DE35AFF4FF08260
:1027A0000B8FEA89FB898081806207C0EE89FF89EF
:1027B0006083E889F98980818064808381E090E08A
:1027C000DF91CF911F910F91FF90EF900895CF93DC
:1027D000DF93EC01888D8823C9F0EA89FB89808129
:1027E00085FD05C0A889B9898C9186FD0FC00FB6FB
:1027F00007FCF5CF808185FFF2CFA889B9898C913C
:1028000085FFEDCFCE010E947F13E7CFDF91CF91FF
:10281000089581E694E00E94731321E0892B09F466
:1028200020E0822F089580E090E0892B29F00E941B
:10283000091481110C9400000895CF92DF92EF9259
:10284000FF920F931F93CF93DF936C017A018B015B
:10285000C0E0D0E0CE15DF0581F0D8016D918D018B
:10286000D601ED91FC910190F081E02DC601099512
:10287000892B11F02196EECF7E01C701DF91CF9118
:102880001F910F91FF90EF90DF90CF9008950895E2
:1028900080E090E00895789483B7826083BF83B727
:1028A000816083BF83B7806483BF83B7886083BF41
:1028B00089B7816089BF1EBC8EB582608EBD8EB522
:1028C00081608EBD8FB581608FBD85B5846085BD0B
:1028D00085B5806485BD329A319A309A379A1AB894
:1028E00008953FB7F8948091030590910405A09155
:1028F0000505B091060522B708B600FE05C02F3FBA
:1029000019F00196A11DB11D3FBFBA2FA92F982F15
:102910008827820F911DA11DB11DBC01CD0142E090
:10292000660F771F881F991F4A95D1F708952FB713
:10293000F8946091FF0470910005809101059091D9
:1029400002052FBF08950E94611A0F931F930E94E2
:1029500097146093690470936A0480936B04909356
:102960006C04E0916104F09162040284F385E02D2F
:1029700081E694E0099597FF1FC00E94971400918B
:10298000690410916A0420916B0430916C04DC019D
:10299000CB01801B910BA20BB30B0091650410912E
:1029A0006604209167043091680480179107A2079C
:1029B000B307B8F28FEF9FEF1F910F9108950F9318
:1029C0001F93CF93DF9301E613E0C0E0D0E00E94B5
:1029D000A51497FD08C0F80181938F012196C115B8
:1029E000F1E0DF07A1F7CE01DF91CF911F910F91A9
:1029F00008950F931F93CF93DF93EC018881998102
:102A0000009729F02A813B812617370788F48B012C
:102A10006F5F7F4F0E949B19009761F099838883B5
:102A20001B830A832C813D81232B11F4FC0110822E
:102A300081E001C080E0DF91CF911F910F91089557
:102A40001F920F920FB60F9211242F933F934F9323
:102A50005F936F937F938F939F93AF93BF93EF9306
:102A6000FF9381E694E00E947F13FF91EF91BF9165
:102A7000AF919F918F917F916F915F914F913F9116
:102A80002F910F900FBE0F901F9018951F920F92CD
:102A90000FB60F9211242F938F939F93EF93FF9371
:102AA000E0917104F09172048081E0917704F091DB
:102AB000780482FD12C0908180917A048F5F8F73B9
:102AC00020917B04821751F0E0917A04F0E0EF59F5
:102AD000FB4F958F80937A0401C08081FF91EF9125
:102AE0009F918F912F910F900FBE0F901F9018956F
:102AF00090E0FC01E855FF4F2491FC01E857FF4F9F
:102B00003491FC01E859FF4FE491EE2379F122233F
:102B1000D1F0243071F028F4213091F0223081F08E
:102B200012C0253049F0273071F485B58F7D85BD01
:102B30000AC08FB58F7702C08FB58F7D8FBD03C060
:102B400083B78F7D83BFF0E0EE0FFF1FE25AFF4F88
:102B5000A591B4919FB7F894611104C08C91309500
:102B6000382302C0EC913E2B3C939FBF0895CF9336
:102B7000DF9390E0FC01E857FF4F2491FC01E859F6
:102B8000FF4F8491882361F190E0880F991FFC0129
:102B9000EC5AFF4FC591D491FC01E25AFF4FA59129
:102BA000B491611109C09FB7F89488812095822360
:102BB0008883EC912E230BC0623061F49FB7F894A8
:102BC0008881322F309583238883EC912E2B2C9390
:102BD0009FBF06C08FB7F894E8812E2B28838FBF44
:102BE000DF91CF9108958F929F92AF92BF92CF9233
:102BF000DF92EF92FF926B017C010E9471144B01F6
:102C00005C01C114D104E104F104F1F00E947114DB
:102C1000DC01CB0188199909AA09BB09883E9340B8
:102C2000A105B10570F321E0C21AD108E108F1084D
:102C300088EE880E83E0981EA11CB11CC114D1043B
:102C4000E104F10419F7DDCFFF90EF90DF90CF9012
:102C5000BF90AF909F908F9008951F920F920FB6E4
:102C60000F9211242F933F938F939F93AF93BF9312
:102C70008091FF0490910005A0910105B09102059B
:102C80003091FE0423E0230F2D3720F40196A11D7F
:102C9000B11D05C026E8230F0296A11DB11D20938A
:102CA000FE048093FF0490930005A0930105B09368
:102CB00002058091030590910405A0910505B0914E
:102CC00006050196A11DB11D80930305909304058F
:102CD000A0930505B0930605BF91AF919F918F9189
:102CE0003F912F910F900FBE0F901F901895E1E626
:102CF000F4E01382128288EE93E0A0E0B0E08483D7
:102D00009583A683B78387EC91E09183808380E4E9
:102D100090E09587848729E230E0378726872BE289
:102D200030E0318B208B2AE230E0338B228B958B85
:102D3000848B8CE290E0978B868B118E128E138E93
:102D4000148E08950E944B1461E08FE00E94B71525
:102D500061E08FE00E947815E0917104F0917204B7
:102D600082E08083E0916D04F0916E041082E09126
:102D70006F04F091700483E0808310927904E091F5
:102D80007504F091760486E88083E0917304F091F5
:102D90007404808180618083E0917304F0917404F5
:102DA000808188608083E0917304F0917404808155
:102DB00080688083E0917304F091740480818F7D3A
:102DC000808381E694E00E9473131816190614F4A8
:102DD0000E94FF0E6AE070E080E090E00E94F31530
:102DE0000E941314EECFA0E0B0E0E9EFF6E10C94FE
:102DF00035185C016B017A016115710519F0FB0151
:102E000091838083E114F10429F0C701029783972D
:102E100008F0C9C0E5012196F5011081812F90E0ED
:102E20000E94EB17892B11F05E01F4CF1D3229F4BB
:102E30002196F501118101E007C01B3221F4E50163
:102E40002296F501118100E0E114F104B1F0F0E106
:102E5000EF16F10429F4B0C010E3E114F10401F11C
:102E60002AE0E216F104B1F180E1E816F10471F014
:102E7000E8E0EE16F104F1F413C0103341F5888157
:102E80008F7D883549F7198122960260F0E1EF2E97
:102E9000F12C88248A94982CA82CAFE0BA2E20C05C
:102EA00078E0E72EF12C88248A94982CA82CEFE166
:102EB000BE2E16C06FEF7FEFCB0197010F2C000CD9
:102EC000440B550B0E94071849015A0109C08AE0BA
:102ED000E82EF12C69E9862E982CA82C69E1B62EF3
:102EE00040E060E070E0CB0127010F2C000C660889
:102EF0007708FE0150ED352E310E29E0231570F4D0
:102F00002FEB210F2A3118F439EC332E06C02FE9AC
:102F1000210F2A3130F529EA322E310E232D30E0EF
:102F20002E153F05F4F44F3FC9F086169706A80604
:102F3000B90688F0A30192010E94F717232D30E013
:102F400040E050E0620F731F841F951F62177307E4
:102F50008407950710F44FEF01C041E021961081DE
:102F6000C8CFC114D10451F0442311F0219703C0FC
:102F700001FF04C02297F601D183C08300FF07C080
:102F800090958095709561957F4F8F4F9F4F4F3FE4
:102F900079F482E290E090930805809307053FEF73
:102FA0002FEF9FEF0DC040E030E020E090E008C040
:102FB000462F372F282F04C0103309F067CF5FCF7B
:102FC000642F732F822FCDB7DEB7E1E10C94511837
:102FD000F8940C94941A91110C94F417803219F00F
:102FE00089508550C8F70895992788270895DB01EF
:102FF0008F939F930E942918BF91AF91A29F800D3C
:10300000911DA39F900DB29F900D11240895A1E2F0
:103010001A2EAA1BBB1BFD010DC0AA1FBB1FEE1F52
:10302000FF1FA217B307E407F50720F0A21BB30B9D
:10303000E40BF50B661F771F881F991F1A9469F719
:1030400060957095809590959B01AC01BD01CF0175
:1030500008950E946B18A59F900DB49F900DA49F9A
:10306000800D911D112408952F923F924F925F92EF
:103070006F927F928F929F92AF92BF92CF92DF9288
:10308000EF92FF920F931F93CF93DF93CDB7DEB7ED
:10309000CA1BDB0B0FB6F894DEBF0FBECDBF099481
:1030A0002A88398848885F846E847D848C849B84D8
:1030B000AA84B984C884DF80EE80FD800C811B81E6
:1030C000AA81B981CE0FD11D0FB6F894DEBF0FBE15
:1030D000CDBFED010895A29FB001B39FC001A39F92
:1030E000700D811D1124911DB29F700D811D112441
:1030F000911D08950F931F93CF93DF938230910515
:1031000010F482E090E0E0910B05F0910C0520E0D6
:1031100030E0A0E0B0E0309719F1408151810281A8
:10312000138148175907C8F08417950769F4109759
:1031300031F012960C93129713961C9327C00093AC
:103140000B0510930C0522C02115310519F042170B
:10315000530718F49A01BD01EF01DF01F801DBCF3D
:1031600021153105F9F0281B390B2430310580F485
:103170008A819B816115710521F0FB019383828314
:1031800004C090930C0580930B05FE01329644C059
:10319000FE01E20FF31F819391932250310939838D
:1031A00028833AC02091090530910A05232B41F468
:1031B00020917E0030917F0030930A05209309050D
:1031C00020917C0030917D002115310541F42DB70F
:1031D0003EB74091800050918100241B350BE09157
:1031E0000905F0910A05E217F307A0F42E1B3F0B27
:1031F0002817390778F0AC014E5F5F4F2417350769
:1032000048F04E0F5F1F50930A05409309058193C4
:10321000919302C0E0E0F0E0CF01DF91CF911F91E8
:103220000F910895CF93DF93009709F481C0FC01BB
:10323000329713821282A0910B05B0910C05109762
:1032400081F420813181820F931F209109053091F3
:103250000A052817390751F5F0930A05E093090587
:1032600067C0ED0120E030E0CE17DF0740F44A816F
:103270005B819E0141155105F1F0EA01F5CFD38341
:10328000C28340815181840F951FC817D90759F413
:1032900088819981840F951F0296918380838A810A
:1032A0009B81938382832115310529F4F0930C05CA
:1032B000E0930B053DC0E901FB83EA8349915991F5
:1032C000C40FD51FEC17FD0761F480819181840F35
:1032D000951F0296E90199838883828193819B835C
:1032E0008A83E0E0F0E012968D919C91139700970D
:1032F00019F0FD01DC01F7CF8D919C9111979D0193
:103300002E5F3F4F820F931F2091090530910A05D0
:103310002817390769F4309729F410920C05109298
:103320000B0502C013821282B0930A05A09309050F
:10333000DF91CF910895A0E0B0E0E1EAF9E10C94CB
:103340003818EC01009721F4CB010E947A18B4C020
:10335000FC01E60FF71F9C0122503109E217F30729
:1033600008F4A8C0D9010D911C91119706171707F1
:10337000B0F00530110508F49BC0C801049786170A
:10338000970708F495C002501109061B170B01930B
:1033900011936D937C93CF010E94121989C05B0138
:1033A000A01AB10A4C01800E911EA0910B05B0919C
:1033B0000C05612C712CE12CF12C109709F446C0FE
:1033C0008D919C911197A815B905B1F56C0142E05A
:1033D000C40ED11CCA14DB0478F14C018A189B0876
:1033E000640142E0C40ED11C1296BC901297139651
:1033F000AC91B5E0CB16D10440F0B282A3839182A8
:103400008082D9016D937C9309C00E5F1F4F800F9E
:10341000911FF90191838083EB2DFA2FE114F104C0
:1034200031F0D7011396FC93EE93129741C0F093BD
:103430000C05E0930B053CC06816790608F43C01C6
:103440007D0112960D90BC91A02DB7CF80910905FA
:1034500090910A0588169906E1F466167706C8F475
:1034600080917C0090917D00009741F48DB79EB7CC
:103470004091800050918100841B950BE817F9075B
:10348000C8F4F0930A05E0930905F901718360839C
:103490000FC0CB010E947A187C01009759F0A80157
:1034A000BE010E94661ACE010E941219C70104C013
:1034B000CE0102C080E090E0CDB7DEB7EEE00C9424
:1034C000541881E090E0F8940C94941AFB01DC010C
:1034D00002C001900D9241505040D8F70895FB0171
:1034E000DC018D91019080190110D9F3990B089599
:1034F000FB01DC0101900D920020E1F70895FB0132
:10350000DC014150504048F001900D920020C9F775
:1035100001C01D9241505040E0F70895EE0FFF1F8B
:0C3520000590F491E02D0994F894FFCF81
:10352C0034014701480149014D014E014F01A000F2
:10353C00AC00AD00AE00B000BC00BD0000000D053D
:10354C002000CEED6666CC0D000B03730083000CDF
:10355C00000D0008111F8889000EDCCC6EE6DDDD45
:10356C00D999BBBB67636E0EECCCDDDC999FBBB904
:10357C00333EFF2451AE9A6921A2843D0A82E48431
:10358C00AD092411988B81C0217F52A319BE0993D8
:10359C0020CE46104A4A27F8EC31C75833E8E3826C
:1035AC00BFCEF48594DF4BCEC1095694C08A7213FA
:1035BC00FCA7849F734DCAA3619A975827A303FC59
:1035CC0076981D2361C7040356AE38BF0084A7400C
:1035DC00FD0E52FF03FE956FF130FB9785C0D66050
:1035EC00258063A903BE4E01E238A2F9FF343EBB2D
:1035FC0044030078CB901188943AC065637CF087C3
:10360C00AF3C25D68BE40A3872ACD42107F80A00FB
:10361C00FC221E1B13100D0C0301090006000000F8
:10362C0000D40907092D078F00EE07AD029E01514A
:10363C000198039D0293022002A901E2010D000CE6
:10364C00000B0000000000D409C1068D048F00207F
:10365C000B4E014301CE00C002CB09CB09D0002F89
:10366C0003900000000000D4099B099B099B099B57
:10367C00099409CF0999099709CB09CB09D1099963
:10368C0009990900000000A0131D144213E71373DD
:10369C0013511365130F00454550524F4D5F563172
:1036AC00313100454550524F4D5F56313230004557
:1036BC004550524F4D5F5631323100454550524FB7
:1036CC004D5F5631323200454550524F4D5F5631A9
:1036DC00323400454550524F4D5F5631323500451E
:1036EC004550524F4D5F56313236005352414D5F6B
:1036FC0056313130005352414D5F56313131005308
:10370C0052414D5F56313132005352414D5F56316B
:10371C003133005352414D5F465F563130300053C8
:10372C0052414D5F465F56313032005352414D5F2E
:10373C00465F56313033005352414D5F465F563130
:10374C00313000464C4153483531325F56313333BA
:10375C0000464C4153483531325F563133310046C7
:10376C004C4153485F5631323500464C4153485F0B
:10377C005631323100464C4153485F563132360097
:10378C00464C415348314D5F5631303200464C4126
:10379C0053485F5631323400464C415348314D5FEB
:1037AC005631303300464C4153483531325F563137
:1037BC00333000464C4153485F5631323300464C4F
:1037CC004153485F56313230007265616400676165
:1037DC006D650073617665007369676E61747572EF
:1037EC006500646D67006762630067626100736502
:1037FC006C667465737400777269746500646562D5
:04380C0075670000DC
:00000001FF
